{
  "_format": "hh-sol-artifact-1",
  "contractName": "Transactions",
  "sourceName": "contracts/Transactions.sol",
  "abi": [
    {
      "inputs": [
        {
          "internalType": "uint256",
          "name": "_unlockTime",
          "type": "uint256"
        }
      ],
      "stateMutability": "payable",
      "type": "constructor"
    },
    {
      "anonymous": false,
      "inputs": [
        {
          "indexed": false,
          "internalType": "address",
          "name": "from",
          "type": "address"
        },
        {
          "indexed": false,
          "internalType": "address",
          "name": "receiver",
          "type": "address"
        },
        {
          "indexed": false,
          "internalType": "uint256",
          "name": "amount",
          "type": "uint256"
        },
        {
          "indexed": false,
          "internalType": "string",
          "name": "message",
          "type": "string"
        },
        {
          "indexed": false,
          "internalType": "uint256",
          "name": "timestamp",
          "type": "uint256"
        },
        {
          "indexed": false,
          "internalType": "string",
          "name": "keyword",
          "type": "string"
        }
      ],
      "name": "Transfer",
      "type": "event"
    },
    {
      "inputs": [
        {
          "internalType": "address payable",
          "name": "receiver",
          "type": "address"
        },
        {
          "internalType": "uint256",
          "name": "amount",
          "type": "uint256"
        },
        {
          "internalType": "string",
          "name": "message",
          "type": "string"
        },
        {
          "internalType": "string",
          "name": "keyword",
          "type": "string"
        }
      ],
      "name": "addToBlockchain",
      "outputs": [],
      "stateMutability": "nonpayable",
      "type": "function"
    },
    {
      "inputs": [],
      "name": "getAllTransactions",
      "outputs": [
        {
          "components": [
            {
              "internalType": "address",
              "name": "sender",
              "type": "address"
            },
            {
              "internalType": "address",
              "name": "receiver",
              "type": "address"
            },
            {
              "internalType": "uint256",
              "name": "amount",
              "type": "uint256"
            },
            {
              "internalType": "string",
              "name": "message",
              "type": "string"
            },
            {
              "internalType": "uint256",
              "name": "timestamp",
              "type": "uint256"
            },
            {
              "internalType": "string",
              "name": "keyword",
              "type": "string"
            }
          ],
          "internalType": "struct Transactions.TransferStruct[]",
          "name": "",
          "type": "tuple[]"
        }
      ],
      "stateMutability": "view",
      "type": "function"
    },
    {
      "inputs": [],
      "name": "getTransactionCount",
      "outputs": [
        {
          "internalType": "uint256",
          "name": "",
          "type": "uint256"
        }
      ],
      "stateMutability": "view",
      "type": "function"
    },
    {
      "inputs": [],
      "name": "owner",
      "outputs": [
        {
          "internalType": "address payable",
          "name": "",
          "type": "address"
        }
      ],
      "stateMutability": "view",
      "type": "function"
    },
    {
      "inputs": [],
      "name": "unlockTime",
      "outputs": [
        {
          "internalType": "uint256",
          "name": "",
          "type": "uint256"
        }
      ],
      "stateMutability": "view",
      "type": "function"
    }
  ],
  "bytecode": "0x6080604052604051620010ae380380620010ae8339818101604052810190620000299190620000fd565b8042106200006e576040517f08c379a00000000000000000000000000000000000000000000000000000000081526004016200006590620001b6565b60405180910390fd5b8060018190555033600260006101000a81548173ffffffffffffffffffffffffffffffffffffffff021916908373ffffffffffffffffffffffffffffffffffffffff16021790555050620001d8565b600080fd5b6000819050919050565b620000d781620000c2565b8114620000e357600080fd5b50565b600081519050620000f781620000cc565b92915050565b600060208284031215620001165762000115620000bd565b5b60006200012684828501620000e6565b91505092915050565b600082825260208201905092915050565b7f556e6c6f636b2074696d652073686f756c6420626520696e207468652066757460008201527f7572650000000000000000000000000000000000000000000000000000000000602082015250565b60006200019e6023836200012f565b9150620001ab8262000140565b604082019050919050565b60006020820190508181036000830152620001d1816200018f565b9050919050565b610ec680620001e86000396000f3fe608060405234801561001057600080fd5b50600436106100575760003560e01c8063251c1aa31461005c57806327506f531461007a5780632e7700f0146100985780638da5cb5b146100b6578063cc2d7ead146100d4575b600080fd5b6100646100f0565b6040516100719190610533565b60405180910390f35b6100826100f6565b60405161008f9190610780565b60405180910390f35b6100a0610339565b6040516100ad9190610533565b60405180910390f35b6100be610342565b6040516100cb91906107c3565b60405180910390f35b6100ee60048036038101906100e9919061097f565b610368565b005b60015481565b60606003805480602002602001604051908101604052809291908181526020016000905b8282101561033057838290600052602060002090600602016040518060c00160405290816000820160009054906101000a900473ffffffffffffffffffffffffffffffffffffffff1673ffffffffffffffffffffffffffffffffffffffff1673ffffffffffffffffffffffffffffffffffffffff1681526020016001820160009054906101000a900473ffffffffffffffffffffffffffffffffffffffff1673ffffffffffffffffffffffffffffffffffffffff1673ffffffffffffffffffffffffffffffffffffffff1681526020016002820154815260200160038201805461020390610a4d565b80601f016020809104026020016040519081016040528092919081815260200182805461022f90610a4d565b801561027c5780601f106102515761010080835404028352916020019161027c565b820191906000526020600020905b81548152906001019060200180831161025f57829003601f168201915b505050505081526020016004820154815260200160058201805461029f90610a4d565b80601f01602080910402602001604051908101604052809291908181526020018280546102cb90610a4d565b80156103185780601f106102ed57610100808354040283529160200191610318565b820191906000526020600020905b8154815290600101906020018083116102fb57829003601f168201915b5050505050815250508152602001906001019061011a565b50505050905090565b60008054905090565b600260009054906101000a900473ffffffffffffffffffffffffffffffffffffffff1681565b60008081548092919061037a90610aad565b919050555060036040518060c001604052803373ffffffffffffffffffffffffffffffffffffffff1681526020018673ffffffffffffffffffffffffffffffffffffffff16815260200185815260200184815260200142815260200183815250908060018154018082558091505060019003906000526020600020906006020160009091909190915060008201518160000160006101000a81548173ffffffffffffffffffffffffffffffffffffffff021916908373ffffffffffffffffffffffffffffffffffffffff16021790555060208201518160010160006101000a81548173ffffffffffffffffffffffffffffffffffffffff021916908373ffffffffffffffffffffffffffffffffffffffff1602179055506040820151816002015560608201518160030190816104b09190610ca1565b506080820151816004015560a08201518160050190816104d09190610ca1565b5050507f416cfa4330a4565f45c2fd2dd4826a83a37443aba2ce6f79477c7355afac35fa33858585428660405161050c96959493929190610e21565b60405180910390a150505050565b6000819050919050565b61052d8161051a565b82525050565b60006020820190506105486000830184610524565b92915050565b600081519050919050565b600082825260208201905092915050565b6000819050602082019050919050565b600073ffffffffffffffffffffffffffffffffffffffff82169050919050565b60006105a58261057a565b9050919050565b6105b58161059a565b82525050565b6105c48161051a565b82525050565b600081519050919050565b600082825260208201905092915050565b60005b838110156106045780820151818401526020810190506105e9565b60008484015250505050565b6000601f19601f8301169050919050565b600061062c826105ca565b61063681856105d5565b93506106468185602086016105e6565b61064f81610610565b840191505092915050565b600060c08301600083015161067260008601826105ac565b50602083015161068560208601826105ac565b50604083015161069860408601826105bb565b50606083015184820360608601526106b08282610621565b91505060808301516106c560808601826105bb565b5060a083015184820360a08601526106dd8282610621565b9150508091505092915050565b60006106f6838361065a565b905092915050565b6000602082019050919050565b60006107168261054e565b6107208185610559565b9350836020820285016107328561056a565b8060005b8581101561076e578484038952815161074f85826106ea565b945061075a836106fe565b925060208a01995050600181019050610736565b50829750879550505050505092915050565b6000602082019050818103600083015261079a818461070b565b905092915050565b60006107ad8261057a565b9050919050565b6107bd816107a2565b82525050565b60006020820190506107d860008301846107b4565b92915050565b6000604051905090565b600080fd5b600080fd5b6107fb816107a2565b811461080657600080fd5b50565b600081359050610818816107f2565b92915050565b6108278161051a565b811461083257600080fd5b50565b6000813590506108448161081e565b92915050565b600080fd5b600080fd5b7f4e487b7100000000000000000000000000000000000000000000000000000000600052604160045260246000fd5b61088c82610610565b810181811067ffffffffffffffff821117156108ab576108aa610854565b5b80604052505050565b60006108be6107de565b90506108ca8282610883565b919050565b600067ffffffffffffffff8211156108ea576108e9610854565b5b6108f382610610565b9050602081019050919050565b82818337600083830152505050565b600061092261091d846108cf565b6108b4565b90508281526020810184848401111561093e5761093d61084f565b5b610949848285610900565b509392505050565b600082601f8301126109665761096561084a565b5b813561097684826020860161090f565b91505092915050565b60008060008060808587031215610999576109986107e8565b5b60006109a787828801610809565b94505060206109b887828801610835565b935050604085013567ffffffffffffffff8111156109d9576109d86107ed565b5b6109e587828801610951565b925050606085013567ffffffffffffffff811115610a0657610a056107ed565b5b610a1287828801610951565b91505092959194509250565b7f4e487b7100000000000000000000000000000000000000000000000000000000600052602260045260246000fd5b60006002820490506001821680610a6557607f821691505b602082108103610a7857610a77610a1e565b5b50919050565b7f4e487b7100000000000000000000000000000000000000000000000000000000600052601160045260246000fd5b6000610ab88261051a565b91507fffffffffffffffffffffffffffffffffffffffffffffffffffffffffffffffff8203610aea57610ae9610a7e565b5b600182019050919050565b60008190508160005260206000209050919050565b60006020601f8301049050919050565b600082821b905092915050565b600060088302610b577fffffffffffffffffffffffffffffffffffffffffffffffffffffffffffffffff82610b1a565b610b618683610b1a565b95508019841693508086168417925050509392505050565b6000819050919050565b6000610b9e610b99610b948461051a565b610b79565b61051a565b9050919050565b6000819050919050565b610bb883610b83565b610bcc610bc482610ba5565b848454610b27565b825550505050565b600090565b610be1610bd4565b610bec818484610baf565b505050565b5b81811015610c1057610c05600082610bd9565b600181019050610bf2565b5050565b601f821115610c5557610c2681610af5565b610c2f84610b0a565b81016020851015610c3e578190505b610c52610c4a85610b0a565b830182610bf1565b50505b505050565b600082821c905092915050565b6000610c7860001984600802610c5a565b1980831691505092915050565b6000610c918383610c67565b9150826002028217905092915050565b610caa826105ca565b67ffffffffffffffff811115610cc357610cc2610854565b5b610ccd8254610a4d565b610cd8828285610c14565b600060209050601f831160018114610d0b5760008415610cf9578287015190505b610d038582610c85565b865550610d6b565b601f198416610d1986610af5565b60005b82811015610d4157848901518255600182019150602085019450602081019050610d1c565b86831015610d5e5784890151610d5a601f891682610c67565b8355505b6001600288020188555050505b505050505050565b610d7c8161059a565b82525050565b6000610d9d610d98610d938461057a565b610b79565b61057a565b9050919050565b6000610daf82610d82565b9050919050565b6000610dc182610da4565b9050919050565b610dd181610db6565b82525050565b600082825260208201905092915050565b6000610df3826105ca565b610dfd8185610dd7565b9350610e0d8185602086016105e6565b610e1681610610565b840191505092915050565b600060c082019050610e366000830189610d73565b610e436020830188610dc8565b610e506040830187610524565b8181036060830152610e628186610de8565b9050610e716080830185610524565b81810360a0830152610e838184610de8565b905097965050505050505056fea26469706673582212204b97036ed10467de857ccf0a7eaa2956cba3dd3a8d98bc03ed43970cedd82b5364736f6c63430008110033",
  "linkReferences": {},
  "deployedLinkReferences": {}
}